:020000040000FA
:060000000A128A1110280B
:10000800FE00030E83120313A4000408A5000A08C7
:10001800A6000A128A11972D0A128A11132883132F
:100028005530840068300A128A1598230A128A11FA
:10003800A0308400AA300A128A15982383010A1274
:100048008A1126280A128A1555240A128A110D3097
:1000580083120313B5008830B6000A128A11E6230A
:100068000A128A118312031307148714071507301D
:10007800A7000030A8000230CC004C08A9000A12E2
:100088008A151F240A128A11831203138510051179
:100098004B30B5008730B6000A128A11E6230A12DF
:1000A8008A110A128A15AC230A128A1183120313C1
:1000B800CC004C08E4001C30B5008830B600640859
:1000C800CC00CD014C08B7004D08B8000A128A11BF
:1000D800E6230A128A116530831203136406031992
:1000E8007D286930640603197D2874306406031D71
:1000F800DC2B65306406031D652BDA30B5008730CC
:10010800B6000A128A11E6230A128A11831203130F
:10011800E701E501E6010030E1000030E2000030CF
:10012800E3008E018F010B108B150C1010140310B7
:10013800061E0314003003180130E7000730A7003B
:100148000030A8000230CC004C08A9000230CD00D5
:100158000030CE000030CF006108CD0762080318D8
:10016800620FB728B828CE0763080318630FBD28A5
:10017800BE28CF074D08AA004E08AB004F08AC00B8
:100188006730AD000030AE00AF01AF0A0A128A1521
:1001980064270A128A11031083120313061E03141C
:1001A800031CDA28831203138514DD288312031332
:1001B80085100310061E0314031CE628831203137C
:1001C8000515E92883120313051100306302031D86
:1001D800F32804306202031DF32800306102031C77
:1001E800E928851005110030E1000030E2000030F8
:1001F800E30000306302031D072904306202031D77
:100208000729003061020318C7290730A70000300A
:10021800A8000230CC004C08A9006108AA006208B6
:10022800AB006308AC006530AD000030AE000230B2
:10023800CD004D08AF000A128A15C8260A128A1185
:10024800073083120313A7000030A8000230CC0047
:100258004C08A9000230CD000030CE000030CF009D
:100268006108CD0762080318620F3B293C29CE07B5
:1002780063080318630F41294229CF074D08AA00D4
:100288004E08AB004F08AC006730AD000030AE0040
:10029800AF01AF0A0A128A15C8260A128A11EB3072
:1002A80083120313B5008730B6006208B8006108EE
:1002B800B7006608BA006508B9006708CC00CD0128
:1002C8004C08BB004D08BC000A128A11E6230A122A
:1002D8008A11831203136509CC006609CD00CC0A84
:1002E8000319CD0A4C08FF3EE5004D080318013EEE
:1002F800FF3EE6000730A7000030A8000230CC001F
:100308004C08A9006108AA006208AB006308AC00A9
:100318006530AD000030AE000230CD004D08AF00B2
:100328000A128A1564270A128A11FB3083120313F2
:10033800B5008730B6006608B8006508B7006708DA
:10034800CC00CD014C08B9004D08BA000A128A1138
:10035800E6230A128A11033083120313E1070030DF
:1003680003180130E207003003180130E3070030BA
:100378006302031DC52904306202031DC52900302C
:100388006102031C09299730B5008730B6000A12AC
:100398008A11E6230A128A11043083120313B50066
:1003A8008830B6000A128A11E6230A128A110A3026
:1003B80083120313A8000030A900A0300A128A157E
:1003C8000C250A128A11A0300A128A159B240A12D7
:1003D8008A11831203132D08DB002E08DC0000307D
:1003E800AE1BFF30DD001530B5008830B6000A12AC
:1003F8008A11E6230A128A110A3083120313A8000D
:100408000030A900A0300A128A150C250A128A1198
:10041800A0300A128A159B240A128A118312031328
:100428002D08D8002E08D9000030AE1BFF30DA00A6
:100438000130CC000030CD000030CE005808CF008D
:100448005908D0005A08D1005B09D2005C09D300D2
:100458005D09D400D20A0319D30A0319D40A520831
:10046800CF0753080318530F3A2A3B2AD0075408DA
:100478000318540F402A412AD1074F08CC075008C7
:100488000318500F482A492ACD0751080318510F5D
:100498004E2A4F2ACE074C08D8004D08D9004E08DE
:1004A800DA000030E1000030E2000030E3005A08D2
:1004B8006302031D652A59086202031D652A58084C
:1004C80061020318652B0730A7000030A80002302E
:1004D800CC004C08A90061085B07CD005C08CE0081
:1004E80062080318620A031DCE075D08CF0063087F
:1004F8000318630ACF074D08AA004E08AB004F083F
:10050800AC006530AD000030AE000230D0005008BD
:10051800AF000A128A15C8260A128A1107308312F8
:100528000313A7000030A8000230CC004C08A90033
:100538000230CD000030CE000030CF0061085B07EC
:10054800D0005C08D10062080318620A031DD107B5
:100558005D08D20063080318630AD2075008CD0764
:1005680051080318510FB92ABA2ACE07520803189E
:10057800520FBF2AC02ACF074D08AA004E08AB0069
:100588004F08AC006730AD000030AE00AF01AF0AD5
:100598000A128A15C8260A128A1107308312031311
:1005A800A7000030A8000230CC004C08A900610860
:1005B800AA006208AB006308AC006530AD000030EB
:1005C800AE000230CD004D08AF000A128A1564272C
:1005D8000A128A11073083120313A7000030A800FB
:1005E8000230CC004C08A9000230CD000030CE000B
:1005F8000030CF006108CD0762080318620F052B91
:10060800062BCE0763080318630F0B2B0C2BCF07A1
:100618004D08AA004E08AB004F08AC006730AD008B
:100628000030AE00AF01AF0A0A128A1564270A1219
:100638008A11EB3083120313B5008730B6006208C5
:10064800B8006108B7006509CC006609CD00CC0A7E
:100658000319CD0A4C08FF3EB9004D080318013EA6
:10066800FF3EBA006708CE00CF014E08BB004F0816
:10067800BC000A128A11E6230A128A11FB3083127F
:100688000313B5008730B6006608B8006508B700E0
:100698006708CC00CD014C08B9004D08BA000A1211
:1006A8008A11E6230A128A11033083120313E10721
:1006B800003003180130E207003003180130E30767
:1006C8005B2A69306406031DB42B1C30B5008730E3
:1006D800B6000A128A11E6230A128A110A30831216
:1006E8000313A8000030A900A0300A128A150C25AF
:1006F8000A128A11A0300A128A159B240A128A113A
:10070800831203132D08D5002E08D6000030AE1B27
:10071800FF30D700C830B5008730B6000A128A11FA
:10072800E6230A128A11003083120313E100003015
:10073800E2000030E3000030DE000030DF0000306F
:10074800E0000C10101457086002031DB12B560866
:100758005F02031DB12B55085E02031CA72B101066
:1007680074306406031D4828B030B5008730B600E1
:100778000A128A11E6230A128A110310831203133C
:10078800061E0314031CCC2B831203138514CF2BD2
:100798008312031385100310061E0314031CD82BA1
:1007A800831203130515C12B831203130511C12BE3
:1007B8007430B5008730B6000A128A11E6230A128F
:1007C8008A114828373083120313BD003D08C6003C
:1007D800831203133608BE003508BD00B50A031995
:1007E800B60A3E08FF003D0884000A128A11002755
:1007F8000A128A11BF003F08CB004B0803190800F2
:1008080025304B0603190F2C4B080A128A15A02312
:100818000A128A11EC2B83120313C901CA01C10100
:100828003608FF00350884000A128A1100270A12C8
:100838008A110A128A15B8230A128A11031CC32CBA
:1008480083120313C901CA010A3083120313A700D4
:100858000030A8004A08AA004908A9000A128A1507
:10086800C8230A128A11831203132808CA0027080A
:10087800C9003608FF00350884000A128A110027CB
:100888000A128A11D03EBD00FF3003180030BE00A6
:100898003D08C9070318CA0A3E08CA070130B50748
:1008A8000318B60A3608FF00350884000A128A11B0
:1008B80000270A128A110A128A15B8230A128A1105
:1008C800031CC32C282C831203134A084802031D57
:1008D8006F2C490847020318782C4708C9024808B2
:1008E800031CCA03CA027A2CC901CA01FF30831249
:1008F8000313C9070318CA0AFF30CA07490A0319AC
:100908004A0A03199D2C20300A128A15A0230A12BC
:100918008A117A2C42088400831300080A128A1567
:10092800A0230A128A11013083120313BD003D0867
:10093800C2070130C7020030031CC803C802470AB7
:10094800031D8E2C480A0319EC2B8E2C46088400B4
:1009580083130008BD003D08CB000230BD003D08F0
:10096800C6074B30BD003D08C2000130C70000304B
:10097800C800672CC030BD003D08C104E82C8312B4
:1009880003133608BE003508BD00B50A0319B60AB8
:100998003E08FF003D0884000A128A1100270A1247
:1009A8008A11CB00BF00C0014008003A0319DD2CB2
:1009B800B52C3F08003A0319962D633A0319AA2C5F
:1009C800163A0319BE2CB52C460884008313000878
:1009D800C300840A0008C4000230BD003D08C607F1
:1009E800CB01CB0A05304B0603191F2D4B08BD0060
:1009F8003D07123E840087300318013EFF000A12AB
:100A08008A1100270A128A11BE000A128A110027C9
:100A18000A128A11BF003F084402031D152D3E0823
:100A28004302031C1F2D0130BD003D08CB070530D4
:100A38004B06031DFA2C4A08803A803C031D262DDC
:100A480049084B020318342D831203134B08BD00C9
:100A5800BE013D08C9023E08031CCA03CA02382D5C
:100A680083120313C901CA0149084A0403194E2D08
:100A780020300A128A15A0230A128A11FF30831225
:100A88000313C9070318CA0AFF30CA0749084A04EA
:100A9800031D3C2D4B08BD003D08C500FF308312E7
:100AA8000313BD003D08C507450A0319EC2B0A309E
:100AB800AF000030B0004508BD003D07123E84007D
:100AC80087300318013EFF000A128A1100270A1214
:100AD8008A11A7000A128A1100270A128A11A8008F
:100AE8004408AA004308A9000A128A11BB260A1260
:100AF8008A11831203132808B2002708B1000A12CA
:100B08008A15EB230A128A11831203132F08303E29
:100B1800BE003E08CB004B080A128A15A0230A1211
:100B28008A11522D080065306406031D272E0F0810
:100B3800E6000E08E5000730F0000030F100023052
:100B4800A0002008F2006108F3006208F4006308BE
:100B5800F5000E30F6000030F7000230A100210841
:100B6800F8000A128A152C260A128A118312031316
:100B78008E018F010330E107003003180130E207CE
:100B8800003003180130E30700306302031DD22D43
:100B980004306202031DD22D003061020318092EB1
:100BA8000310061E0314003003180130E700073055
:100BB800F0000030F1000230A0002008F2000230FE
:100BC800A1000030A2000030A3006108A10762085C
:100BD8000318620FF02DF12DA20763080318630FA5
:100BE800F62DF72DA3072108F3002208F4002308A7
:100BF800F5006730F6000030F700F801F80A0A122D
:100C08008A152C260A128A110B2E10108B1103102C
:100C180083120313061E0314031C162E83120313D8
:100C28008514192E8312031385100310061E03144E
:100C3800031C222E831203130515252E831203137A
:100C480005110B10B12E57086002031D312E5608EE
:100C58005F02031D312E55085E020318B02E0730BF
:100C6800F0000030F1000230A0002008F200610816
:100C7800F3006208F4006308F5000E30F600003057
:100C8800F7000230A1002108F8000A128A15902501
:100C98000A128A110730F0000030F1000230831286
:100CA8000313A0002008F2000230A1000030A200C7
:100CB8000030A3006108A10762080318620F652EBF
:100CC800662EA20763080318630F6B2E6C2EA3070A
:100CD8002108F3002208F4002308F5006730F60025
:100CE8000030F700F801F80A0A128A1590250A124E
:100CF8008A1183120313670C031C051103180515C9
:100D0800670C031C8510031885140330E1070030B5
:100D180003180130E207003003180130E3075A08CE
:100D28006302031D9D2E59086202031D9D2E58085B
:100D38006102031CB12E0130DE07003003180130B8
:100D4800DF07003003180130E0070030E100003011
:100D5800E2000030E300B12E10100C1026088A00C3
:100D680025088400240E8300FE0E7E0E09008312DF
:100D78000313AC01AD01270828040319F42EAE01B2
:100D8800AE0AA81BD32E01300310A70DA80DFF3EF5
:100D9800031DC82E0130AB002B08AE07C52E01304D
:100DA8000310AC0DAD0DFF3E031DD42E28082A02FA
:100DB800031DE02E27082902031CE92E2708A90293
:100DC8002808031CAA03AA022C1401300310A80C3B
:100DD800A70CFF3E031DEA2E0130AE02031DD32EE1
:0A0DE8002D08A8002C08A700080041
:100E0000FF1B0A2F83137F1883170008840A031916
:100E1000FF0A08007F087F398A000408840A031942
:100E2000FF0A8200013400340A3400346434003490
:100E3000E834033410342734443469346734693473
:100E400074346134723465342034713475346134EF
:100E50006E3474346534203476346F346C347434C6
:100E60006534203472346934703472346F346434CD
:100E7000753472347234653420346C346134203407
:100E8000733465347134753465346E347A34613456
:100E90003A3420340034523465346734693473345E
:100EA00074347234613472346534283465342934CE
:100EB0002C34203472346934703472346F346434B6
:100EC00075347234723465342834693429342034EA
:100ED0006F34203474346534733474342834743487
:100EE00029343A34203400344534523452344F34A7
:100EF000523445343A3420346434693467346934C4
:100F000074346134723465342034273465342734C2
:100F10002C34203427346934273420346F3420347F
:100F20002734743427342E340A340D3400345334C7
:100F300065346C3465347A3469346F3461347234B6
:100F40006534203469346C34203470346534723440
:100F500069346F3464346F342E340A340D34003401
:100F60005234653473346534743474346134723497
:100F700065342034703465347234203475347334FD
:100F800063346934723465342E340A340D340034D9
:100F900052346934703472346F3464347534633469
:100FA00065346E3464346F342E342E342E340A3467
:100FB0000D34003452346534673469347334743416
:100FC000723461346E3464346F342E342E342E34E3
:100FD0000A340D3400345B342534343475345D34D4
:100FE00020342534353475342D34253475342C347F
:100FF0000934093400342534353475342D3425341E
:1010000075340A340D34003449346E3469347A341A
:1010100069346F343A342034003452344534533414
:10102000453454340A340D340034463469346E3453
:1010300065343A3420340034253463340A340D34B2
:0210400000347A
:1017300064008001840A0406031900340406992B0E
:1017400083120313A70083160313981CA32B831281
:101750000313270899000800831203138C1AB62B71
:10176000981CAC2B981018121816AC2B1A080800ED
:1017700083120313A800A7013A3028020318C62BCE
:1017800030302802031CC62BA701A70A270C08002B
:1017900083120313AB01AC01271CD42B2908AB0720
:1017A0000318AC0A2A08AC0701300310A90DAA0DD2
:1017B000FF3E031DD52B01300310A80CA70CFF3EE4
:1017C000031DDC2B27082804031DCC2B2C08A800A4
:1017D0002B08A7000800831203132F0830040319F5
:1017E0001A2CB401B40AB01B012C01300310AF0D48
:1017F000B00DFF3E031DF62B0130B3003308B407D4
:10180000F32B30083202031D072C2F083102031C72
:101810000F2C2F08B1023008031CB203B2020130B2
:101820000310B00CAF0CFF3E031D102C0130B402AE
:10183000031D012C3208B0003108AF0008008312EC
:101840000313AC010130AA00290A282C0310AA0DA9
:10185000FF3E031D262C2A08FF3AAB002708840010
:101860008317281C83132B0880059413FF309300E3
:1018700083160313141C382C831203131308AA00B5
:101880002A08AC000130AA00290A482C0310AA0D2E
:10189000FF3E031D462C2A08AB002708840083174F
:1018A000281C83132B08800408008312031385016E
:1018B000831603131F08F03906389F008501103086
:1018C0008600103087008B170B170B108B11071336
:1018D000871783120313071783160313181218139D
:1018E00098168312031318138316031318110F305D
:1018F00099008312031318169817831603130C12FA
:101900008C12303083120313900490119010101039
:101910008E018F01831603130C14831203130C1012
:1019200083160313941714178312031394161412B7
:10193000F0309405080083120313B40034088400C7
:10194000203083130006031DAA2C0130AF002F089E
:10195000B4079E2C34088400093000060319A52C16
:10196000B201B301B101340884002D300006031D1B
:10197000BE2C0130AF002F08B107C42C34088400FE
:101980002B300006031DC82C0130AF002F08B40710
:101990003408840000080A128A15B8230A128A152E
:1019A000031CF62C831203133308A8003208A70087
:1019B0000A30A9000030AA000A128A15C8230A12A8
:1019C0008A15831203133408840083130008270741
:1019D000AF0028080318280AB0002F08D03EB20034
:1019E00030080318013EFF3EB300C42C83120313DA
:1019F00031080319072D3209AF003309B000AF0ACF
:101A00000319B00A2F08AD003008AE0008003308F3
:101A1000AE003208AD00080083120313AC00AD0124
:101A2000AE01262D2F080A128A15A0230A128A1544
:101A30000A300A128A15A023831203132D082C07DB
:101A4000AA002A0884008313800108000A128A155C
:101A5000AC230A128A1583120313AA002A08AF00C6
:101A60000D302F060319122D7F302F0603193C2D40
:101A700008302F06031D652D2E08803AFF008030A8
:101A80007F02031D452D01302D02031C262D8312DC
:101A900003132F080A128A15A0230A128A15203070
:101AA0000A128A15A0230A128A15831203132F081B
:101AB0000A128A15A0230A128A15FF308312031313
:101AC000AD070318AE0AFF308E2D20302F02031C05
:101AD000262D2E08803AAA002908803A2A02031DE2
:101AE000732D28082D020318262D831203132F08A7
:101AF0000A128A15A0230A128A15831203132F08CB
:101B0000AA002D082C07AB002B0884002A08831399
:101B100080000130AD070318AE0A0030AE07262D55
:101B2000FC010130F900720A972D0310F90DFF3EF8
:101B3000031D952D7908FF3AFA0070088400831779
:101B4000711C83137A0880058312031394130330E6
:101B5000930083160313141CA92D83120313130877
:101B6000F9007908FC0094137308F9007408FA006E
:101B70007508FB0010300310FB0CFA0CF90CFF3E4B
:101B8000031DBB2D7908930083160313141CC42D69
:101B9000831203131308F9007908FC0094137308E7
:101BA000F9007408FA007508FB0008300310FB0CFC
:101BB000FA0CF90CFF3E031DD62D7908930083160D
:101BC0000313141CDF2D831203131308F900790883
:101BD000FC0094137308930083160313141CEC2D5C
:101BE000831203131308F9007908FC00FD0178083B
:101BF0007D020318192E94137C0893008316031397
:101C0000141CFE2D831203131308F9007D087607B8
:101C1000FA0077080318013EFB007A088400831756
:101C20007B1C8313790880000130F9007908FD07D7
:101C3000F72D0130F900720A1F2E0310F90DFF3E37
:101C4000031D1D2E7908FA00700884008317711C8B
:101C500083137A0880040800FC010130F900720A3D
:101C6000332E0310F90DFF3E031D312E7908FF3A84
:101C7000FA00700884008317711C83137A088005AA
:101C80008312031394130230930083160313141C5E
:101C9000452E831203131308F9007908FC009413EE
:101CA0007308F9007408FA007508FB00103003107F
:101CB000FB0CFA0CF90CFF3E031D572E790893001C
:101CC00083160313141C602E831203131308F900E8
:101CD0007908FC0094137308F9007408FA00750879
:101CE000FB0008300310FB0CFA0CF90CFF3E031D3F
:101CF000722E7908930083160313141C7B2E831213
:101D000003131308F9007908FC0094137308930077
:101D100083160313141C882E831203131308F9006F
:101D20007908FC00FD0178087D020318B52E941394
:101D30007D087607F90077080318013EFA00790854
:101D4000840083177A1C83130008930083160313FF
:101D5000141CA62E831203131308F9007908FC0043
:101D60000130F9007908FD07932E0130F900720A5D
:101D7000BB2E0310F90DFF3E031DB92E7908FA00A2
:101D8000700884008317711C83137A08800408008C
:101D900083120313B3010130B000290AD12E0310BE
:101DA000B00DFF3E031DCF2E3008FF3AB1002708CB
:101DB00084008317281C8313310880059413033093
:101DC000930083160313141CE12E831203131308CC
:101DD000B0003008B30094132A08B0002B08B100FB
:101DE0002C08B20010300310B20CB10CB00CFF3E46
:101DF000031DF32E3008930083160313141CFC2ECE
:101E0000831203131308B0003008B30094132A0898
:101E1000B0002B08B1002C08B20008300310B20C3F
:101E2000B10CB00CFF3E031D0E2F3008930083163B
:101E30000313141C172F831203131308B000300868
:101E4000B30094132A08930083160313141C242F41
:101E5000831203131308B0003008B300B4012F0835
:101E600034020318512F941333089300831603137D
:101E7000141C362F831203131308B00034082D07E7
:101E8000B1002E080318013EB20031088400831708
:101E9000321C8313300880000130B0003008B407D2
:101EA0002F2F0130B000290A572F0310B00DFF3E2D
:101EB000031D552F3008B100270884008317281C04
:101EC000831331088004080083120313B301013027
:101ED000B000290A6D2F0310B00DFF3E031D6B2FBC
:101EE0003008FF3AB100270884008317281C8313A9
:101EF0003108800594130230930083160313141CD9
:101F00007D2F831203131308B0003008B30094131D
:101F10002A08B0002B08B1002C08B20010300310C2
:101F2000B20CB10CB00CFF3E031D8F2F3008930094
:101F300083160313141C982F831203131308B00085
:101F40003008B30094132A08B0002B08B1002C0805
:101F5000B20008300310B20CB10CB00CFF3E031DF0
:101F6000AA2F3008930083160313141CB32F831277
:101F700003131308B0003008B30094132A08930029
:101F800083160313141CC02F831203131308B0000D
:101F90003008B300B4012F0834020318ED2F941356
:101FA00034082D07B0002E080318013EB100300898
:101FB00084008317311C83130008930083160313D6
:101FC000141CDE2F831203131308B0003008B30073
:101FD0000130B0003008B407CB2F0130B000290A1F
:101FE000F32F0310B00DFF3E031DF12F3008B10099
:101FF000270884008317281C8313310880040800F5
:02400E0032FF7F
:00000001FF
