:060000000A128A11FC2F18
:10032800F00083160313981C952970088312031391
:1003380099000800831203138C1AA829981C9E2977
:100348009810181218169E291A080800F100F001D2
:100358003A3071020318B62930307102031CB629ED
:10036800F001F00A700C0800F401F501701CC229B4
:100378007208F4070318F50A7308F507013003102B
:10038800F20DF30DFF3E031DC32901300310F10CDC
:10039800F00CFF3E031DCA2970087104031DBA2919
:1003A8007508F1007408F00008007808790403194A
:1003B800062AFD01FD0AF91BED2901300310F80D8D
:1003C800F90DFF3E031DE2290130FC007C08FD0702
:1003D800DF2979087B02031DF32978087A02031CB8
:1003E800FB297808FA027908031CFB03FB02013099
:1003F8000310F90CF80CFF3E031DFC290130FD0227
:10040800031DED297B08F9007A08F800080083121B
:1004180003138501831603131F08F03906389F005C
:10042800860101308500870107138717831203139C
:100438000717831603131812181398168312031339
:1004480018138316031318110F309900831203131E
:1004580018169817831603130C128C123030831257
:10046800031390049015901010108E018F018316BD
:1004780003130C10831203130C100800F501F60186
:10048800700871040319792AF701F70AF11B582A31
:1004980001300310F00DF10DFF3E031D4D2A013010
:1004A800F4007408F7074A2A01300310F50DF60D19
:1004B800FF3E031D592A71087302031D652A70083F
:1004C8007202031C6E2A7008F2027108031CF303FF
:1004D800F302751401300310F10CF00CFF3E031DFC
:1004E8006F2A0130F702031D582A7608F1007508B3
:1004F800F0000800FD007D0884002030831300060A
:10050800031D8B2A0130F8007808FD077F2A7D0833
:100518008400093000060319862AFB01FC01FA0150
:100528007D0884002D300006031D9F2A0130F80045
:100538007808FA07A52A7D0884002B300006031DD9
:10054800A92A0130F8007808FD077D088400000812
:100558000A128A11AA210A128A11031CD32A7C08BA
:10056800F1007B08F0000A30F2000030F3000A12B4
:100578008A11B8210A128A117D08840083130008A1
:100588007007F80071080318710AF9007808D03E5E
:10059800FB0079080318013EFF3EFC00A52A7A08F3
:1005A8000319E22A7B09F8007C09F900F80A031903
:1005B800F90A7808F6007908F70008007C08F700BF
:1005C8007B08F6000800F500F601F701FD2A780817
:1005D8000A128A1194210A128A110A300A128A11FF
:1005E800942176087507F30073088400831380014B
:1005F80008000A128A119E210A128A11F300730850
:10060800F8000D3078060319EB2A7F3078060319B5
:10061800112B08307806031D342B7708803AFF0029
:1006280080307F02031D1A2B01307602031CFD2A3D
:1006380078080A128A1194210A128A1120300A12A3
:100648008A1194210A128A1178080A128A119421AF
:100658000A128A11FF30F6070318F70AFF30592BE0
:1006680020307802031CFD2A7708803AF3007208CC
:10067800803A7302031D422B710876020318FD2A83
:1006880078080A128A1194210A128A117808F3004C
:1006980076087507F40074088400730883138000D3
:1006A8000130F6070318F70A0030F707FD2A223051
:1006B80083120313A8002808B0008312031321082B
:1006C800A9002008A800A00A0319A10A2908FF0008
:1006D800280884000A128A1500200A128A11AA0022
:1006E8002A08B5003508031908002530350603190E
:1006F800842B35080A128A1194210A128A11612B57
:1007080083120313B301B401AB012108FF002008D1
:1007180084000A128A1500200A128A110A128A1104
:10072800AA210A128A11031C382C83120313B3015D
:10073800B4010A30F0000030F100831203133408CA
:10074800F3003308F2000A128A11B8210A128A113A
:10075800710883120313B4007008B3002108FF0066
:10076800200884000A128A1500200A128A11D03E35
:10077800A800FF3003180030A9002808B3070318A1
:10078800B40A2908B4070130A0070318A10A2108F0
:10079800FF00200884000A128A1500200A128A1114
:1007A8000A128A11AA210A128A11031C382C9D2BBD
:1007B8008312031334083202031DE42B3308310279
:1007C8000318ED2B3108B3023208031CB403B4023A
:1007D800EF2BB301B401FF3083120313B3070318DF
:1007E800B40AFF30B407330A0319340A0319122C68
:1007F80020300A128A1194210A128A11EF2B2C0830
:100808008400831300080A128A1194210A128A119B
:10081800013083120313A8002808AC070130B10285
:100828000030031CB203B202310A031D032C320A42
:100838000319612B032C3008840083130008A800D7
:100848002808B5000230A8002808B0073530A800ED
:100858002808AC000130B1000030B200DC2BC030F9
:10086800A8002808AB04552C831203132108A900FB
:100878002008A800A00A0319A10A2908FF002808CF
:1008880084000A128A1500200A128A11B500003A5B
:1008980003190B2D633A03191F2C163A0319332C2D
:1008A8002A2C3008840083130008AD00840A00084D
:1008B800AE000230A8002808B007B501B50A053017
:1008C800350603198C2C3508A8002807123E840029
:1008D80088300318013EFF000A128A1500200A1208
:1008E8008A11A9000A128A1500200A128A11AA0080
:1008F8002A082E02031D822C29082D02031C8C2C89
:100908000130A8002808B50705303506031D672CF7
:100918003508A800A901A81BA9032908803AAA003C
:100928003408803A2A02031D9B2C33082802031836
:10093800AB2C831203133508A800A901A81BA9032F
:100948002808B3022908031CB403B402AF2C83128D
:100958000313B301B401330834040319C52C203040
:100968000A128A1194210A128A11FF308312031382
:10097800B3070318B40AFF30B40733083404031D5F
:10098800B32C3508A8002808AF00FF3083120313E2
:10099800A8002808AF072F0A0319612B0A30F800AE
:1009A8000030F9002F08A8002807123E840088307C
:1009B8000318013EFF000A128A1500200A128A1144
:1009C800F0000A128A1500200A128A11F1002E0876
:1009D800F3002D08F2000A128A1142220A128A1123
:1009E8007108FB007008FA000A128A11D9210A124C
:1009F8008A117808303E83120313A9002908B5002C
:100A080035080A128A1194210A128A11C92C080081
:100A18000A128A110B220A128A110F308312031349
:100A2800A0008930A1000A128A115B230A128A11D8
:100A380083120313851005114B30A0008830A100E4
:100A48000A128A115B230A128A110A128A119E213C
:100A58000A128A1183120313BA003A088316031381
:100A6800AF001E3083120313A0008930A100831643
:100A780003132F0883120313BA00BB013A08A2001C
:100A88003B08A3000A128A115B230A128A116530F7
:100A9800831603132F060319592D69302F060319DE
:100AA800592D74302F06031DF72F65302F06031DAF
:100AB8004A2FD53083120313A0008830A1000A12F0
:100AC8008A115B230A128A118312031310148316E6
:100AD8000313B001303030020318CA2D00308312DE
:100AE80003130518013083160313AA008312031396
:100AF8008E018F010C10831603133008403E8400CA
:100B0800031083120313051C03140030031801306B
:100B1800831380000310051C0314031C972D8312F4
:100B2800031385149A2D8312031385100310051CD3
:100B38000314031CA32D831203130515A62D83127A
:100B48000313051105080139831603132A06031D2B
:100B5800B12D831203130C1CA62D83160313300822
:100B680083120313BA003A07903E84000E088317D5
:100B78008000840A0F0880000130BA003A08831602
:100B88000313B00730303002031C722D8312031395
:100B980085100511101083160313B0013030300290
:100BA8000318662EE63083120313A0008830A100D4
:100BB80083160313300883120313BA00BB013A08E3
:100BC800A2003B08A3008316031330088312031303
:100BD800BC003C07903E840083170008A400840AE8
:100BE8000008A500831603133008403E84008313D1
:100BF800000883120313BD00BE013D08A6003E088D
:100C0800A7000A128A115B230A128A11831603139A
:100C1800300883120313BA003A07903E8400831702
:100C28000008BB00840A0008BC00BB09BC09BB0A59
:100C38000319BC0A3B08FF3EBD003C080318013EEF
:100C4800FF3EBE0083160313300883120313BF0050
:100C58003F07903E84003D088000840A3E088000DB
:100C6800FC30A0008830A1008316031330088312DB
:100C78000313BA003A07903E84000008A200840AD1
:100C88000008A300831603133008403E8400831332
:100C9800000883120313BB00BC013B08A4003C08F6
:100CA800A5000A128A115B230A128A1101308312E5
:100CB8000313BA003A0883160313B0073030300222
:100CC800031CD62D923083120313A0008830A10094
:100CD8000A128A115B230A128A110630831203133F
:100CE800A0008930A1000A128A115B230A128A1116
:100CF8000A30F1000030F200A0300A128A11E7220F
:100D08000A128A11A0300A128A117E220A128A1146
:100D1800760883120313BA003A0883160313AD004A
:100D2800173083120313A0008930A1000A128A1118
:100D38005B230A128A110A30F1000030F200A03059
:100D48000A128A11E7220A128A11A0300A128A119D
:100D58007E220A128A11760883120313BA003A080F
:100D680083160313AE002D03FF3A2E07013E8312AC
:100D78000313BA003A0883160313AE00B0012E0815
:100D880030020318E02E2D083007403E84008313FC
:100D9800000883120313BA00831603133008403E79
:100DA8008400831203133A0880000130BA003A081D
:100DB80083160313B007C32EB0012E0830020318A0
:100DC800082F2D08300783120313BA003A07903E04
:100DD800840083170008BB00840A0008BC0083163F
:100DE8000313300883120313BD003D07903E8400AF
:100DF8003B088000840A3C0880000130BA003A08A9
:100E080083160313B007E12EB0012E083002031831
:100E18004A2FF63083120313A0008830A1008316EE
:100E28000313300883120313BA00BB013A08A20067
:100E38003B08A30083160313300883120313BC0076
:100E48003C07903E840083170008A400840A000829
:100E5800A500831603133008403E8400831300085E
:100E680083120313BD00BE013D08A6003E08A7007B
:100E78000A128A115B230A128A11013083120313A2
:100E8800BA003A0883160313B007092F69302F06F2
:100E9800031DCB2F1C3083120313A0008830A10040
:100EA8000A128A115B230A128A110A30F1000030F3
:100EB800F200A0300A128A11E7220A128A11A03021
:100EC8000A128A117E220A128A11760883120313E3
:100ED800BA003A0883160313AB00C3308312031316
:100EE800A0008830A1000A128A115B230A128A1115
:100EF80083120313101483160313AC012B082C025E
:100F08000318C82FB0012E0830020318BF2F831210
:100F180003130C1083160313300883120313BA004B
:100F28003A07903E8400831700088E00840A000860
:100F38008F00831603133008403E84008313000C8F
:100F480083120313031C85100318851483160313D7
:100F58003008403E8400000C83120313031C051163
:100F6800031805150C1CB62F0130BA003A08831671
:100F78000313B007872F013083120313BA003A080E
:100F880083160313AC07822F8312031310107430D7
:100F9800831603132F06031D1C2DAB308312031376
:100FA800A0008830A1000A128A115B230A128A1154
:100FB800031083120313051C0314031CE72F831269
:100FC80003138514EA2F8312031385100310051CDD
:100FD8000314031CF32F831203130515DC2F83124C
:100FE80003130511DC2F74308312A0008830162DEE
:100FF80083010A128A110C2DFF1B0A2883137F18FC
:1010080083170008840A0319FF0A08007F087F393C
:101018008A000408840A0319FF0A82000134003494
:101028000A34003464340034E83403341034273488
:1010380044346934673469347434613472346534DF
:1010480020347134753461346E347434653420342A
:1010580076346F346C3474346534203472346934C3
:10106800703472346F346434753472347234653465
:1010780020346C34613420347334653471347534FD
:1010880065346E347A3461343A342034003452345E
:101098006534673469347334743472346134723447
:1010A80065342834653429342C3420347234693456
:1010B800703472346F346434753472347234653415
:1010C80028346934293420346F3420347434653436
:1010D800733474342834743429343A342034003462
:1010E8004534523452344F34523445343A3420342F
:1010F80064346934673469347434613472346534FF
:10110800203427346534273420346F34203427348E
:10111800693427342E340A340D340034533465349A
:101128006C3465347A3469346F34613472346534BC
:10113800203469346C342034703465347234693442
:101148006F3464346F342E340A340D34003452341E
:10115800653473346534743474346134723465348A
:101168002034703465347234203475347334633405
:101178006934723465342E340A340D3400345234F0
:101188006934703472346F3464347534633465345C
:101198006E3464346F342E342E342E340A340D34C5
:1011A80000345234653467346934733474347234B7
:1011B80061346E3464346F342E342E342E340A3451
:1011C8000D3400345B342534323475345D342034C6
:1011D8002534353475342D34253475342C3409349C
:1011E800093400345B342534323475345D342034AA
:1011F8002534353475342D34253475342C340A347B
:101208000D34003449346E3469347A3469346F34B7
:101218003A34203400345234453453344534543449
:101228000A340D340034463469346E3465343A3443
:0E12380020340034253463340A340D3400347D
:02400E0032FF7F
:00000001FF
