:060000000A128A11122809
:10000800FE00030EF1000408F2000A08F300831250
:1000180003137F08F4000A128A11A62E0A128A1105
:100028001528F80183134C3084005C300A128A11B9
:100038009B240A128A11A0308400D0300A128A1137
:100048009B240A128A11831790308400F0300A1218
:100058008A119B2483010A128A1132280A128A11F2
:1000680014240A128A110E3083120313AB0086304F
:10007800AC000A128A1161220A128A118312031330
:10008800851005114B30AB008530AC000A128A117F
:1000980061220A128A110A128A11F4270A128A1195
:1000A80083120313C5004508D1001D30AB0086300C
:1000B800AC005108C500C6014508AD004608AE00B1
:1000C8000A128A1161220A128A11653083120313F7
:1000D80051060319772869305106031977287430B7
:1000E8005106031D5D2A65305106031DFE29DA30CD
:1000F800AB008530AC000A128A1161220A128A11FB
:1001080083120313D0018E018F010B108B150C1075
:1001180010145008A03E84000310061E031400307B
:1001280003180130831380000310061E0314031CF8
:10013800A128831203138514A4288312031385109E
:100148000310061E0314031CAD28831203130515A0
:10015800B02883120313051130305002031CB02855
:1001680085100511D0013030500203182D29EB30CD
:10017800AB008530AC005008C500C6014508AD008D
:100188004608AE005008C7004707903E8400831712
:100198000008AF00840A0008B0005008A03E8400A0
:1001A80083130008C800C9014808B1004908B20013
:1001B8000A128A1161220A128A1183120313500843
:1001C800C5004507903E840083170008C600840ACE
:1001D8000008C700C609C709C60A0319C70A46089E
:1001E800FF3EC80047080318013EFF3EC9005008FB
:1001F800CA004A07903E840048088000840A4908DB
:100208008000FB30AB008530AC005008C5004507C6
:10021800903E84000008AD00840A0008AE00500833
:10022800A03E840083130008C600C7014608AF003B
:100238004708B0000A128A1161220A128A11013095
:1002480083120313C5004508D00730305002031C41
:10025800BB289730AB008530AC000A128A116122A6
:100268000A128A11053083120313AB008630AC00E2
:100278000A128A1161220A128A110A30F600003025
:10028800F70052300A128A1122260A128A115230B5
:100298000A128A1122270A128A11831203132408C8
:1002A800C5004508CE001630AB008630AC000A12F7
:1002B8008A1161220A128A110A30F6000030F7000A
:1002C80052300A128A1122260A128A1152300A1250
:1002D8008A1122270A128A11831203132408C500DF
:1002E8004508CD004E03FF3A4D07013EC5004508BD
:1002F800CD00D0014D0850020318FE294E085007C2
:10030800A03E840083130008C5005008A03E840066
:10031800450880004E085007C5004507903E8400F8
:1003280083170008C600840A0008C7005008C800E0
:100338004807903E840046088000840A47088000E9
:10034800EB30AB008530AC005008C500C60145084D
:10035800AD004608AE005008C7004707903E84002D
:100368000008C800840A0008C900C809C909C80AE1
:100378000319C90A4808FF3EAF0049080318013E9F
:10038800FF3EB0005008A03E840083130008CA0056
:10039800CB014A08B1004B08B2000A128A11612247
:1003A8000A128A11FB3083120313AB008530AC00AC
:1003B8005008C5004507903E840083170008AD002B
:1003C800840A0008AE005008A03E84008313000889
:1003D800C600C7014608AF004708B0000A128A11D4
:1003E80061220A128A11013083120313C5004508DD
:1003F800D0077E2969305106031D352A1C30AB0011
:100408008530AC000A128A1161220A128A110A3058
:10041800F6000030F70052300A128A1122260A121A
:100428008A1152300A128A1122270A128A1183125B
:1004380003132408C5004508CC00C830AB0085303C
:10044800AC000A128A1161220A128A11831203135C
:10045800D001CF010C1010144C084F02031C302A95
:10046800101074305106031D4228B030AB0085309F
:10047800AC000A128A1161220A128A11031083122F
:100488000313061E0314031C4D2A83120313851439
:10049800502A8312031385100310061E0314031C2D
:1004A800592A831203130515422A831203130511CF
:1004B800422A7430AB0085303C282D308312031358
:1004C800B3003308BB00831203132C08B4002B08B5
:1004D800B300AB0A0319AC0A3408FF0033088400E0
:1004E8000A128A1100250A128A11B5003508C000BF
:1004F8004008031908002530400603198A2A4008D5
:100508000A128A1191240A128A11672A8312031384
:10051800BE01BF01B6012C08FF002B0884000A1297
:100528008A1100250A128A110A128A1183240A12D2
:100538008A11031C3E2B83120313BE01BF010A302C
:1005480083120313A0000030A1003F08A3003E0857
:10055800A2000A128A11D1270A128A1183120313E0
:100568002108BF002008BE002C08FF002B088400CB
:100578000A128A1100250A128A11D03EB300FF30F0
:1005880003180030B4003308BE070318BF0A340844
:10059800BF070130AB070318AC0A2C08FF002B0873
:1005A80084000A128A1100250A128A110A128A1175
:1005B80083240A128A11031C3E2BA32A83120313D5
:1005C8003F083D02031DEA2A3E083C020318F32AAD
:1005D8003C08BE023D08031CBF03BF02F52ABE014A
:1005E800BF01FF3083120313BE070318BF0AFF3091
:1005F800BF073E0A03193F0A0319182B20300A12B5
:100608008A1191240A128A11F52A37088400831363
:1006180000080A128A1191240A128A1101308312E1
:100628000313B3003308B7070130BC020030031CC2
:10063800BD03BD023C0A031D092B3D0A0319672AA5
:10064800092B3B08840083130008B3003308C0005B
:100658000230B3003308BB074030B3003308B7009B
:100668000130BC000030BD00E22AC030B3003308BE
:10067800B6045B2B831203132C08B4002B08B300B9
:10068800AB0A0319AC0A3408FF00330884000A12C5
:100698008A1100250A128A11C000003A0319132C86
:1006A800633A0319252B163A0319392B302B3B08CB
:1006B800840083130008B800840A0008B9000230D7
:1006C800B3003308BB07C001C00A05304006031950
:1006D800922B4008B3003307123E8400853003187C
:1006E800013EFF000A128A1100250A128A11B4007D
:1006F8000A128A1100250A128A11B5003508390232
:10070800031D882B34083802031C922B0130B300D8
:100718003308C00705304006031D6D2B4008B300A1
:10072800B401B31BB4033408803AB5003F08803ADB
:100738003502031DA12B3E0833020318B12B831287
:1007480003134008B300B401B31BB4033308BE025B
:100758003408031CBF03BF02B52B83120313BE0169
:10076800BF013E083F040319CB2B20300A128A111F
:1007780091240A128A11FF3083120313BE0703184B
:10078800BF0AFF30BF073E083F04031DB92B4008CE
:10079800B3003308BA00FF3083120313B3003308E1
:1007A800BA073A0A0319672A0A30A7000030A800D6
:1007B8003A08B3003307123E840085300318013E1F
:1007C800FF000A128A1100250A128A11A0000A12D3
:1007D8008A1100250A128A11A1003908A3003808D5
:1007E800A2000A128A1193270A128A11831203138C
:1007F8002108AA002008A9000A128A114F240A1207
:100808008A11831203132708303EB4003408C0004D
:1008180040080A128A1191240A128A11CF2B080063
:10082800831203138501831603131F08F039063852
:100838009F0085011030860087018B170B170B105E
:100848008B110713871783120313071783160313D4
:100858001812181398168312031318138316031308
:1008680018110F309900831203131816981783165E
:1008780003130C128C12303083120313900490155A
:10088800901010108E018F01831603130C1483121D
:1008980003130C10080083120313270828040319F4
:1008A8007E2CF701F70AA81B652C01300310A70D51
:1008B800A80DFF3E031D5A2C0130F6007608F707F5
:1008C800572C28082A02031D6B2C27082902031C11
:1008D800732C2708A9022808031CAA03AA020130BE
:1008E8000310A80CA70CFF3E031D742C0130F7025F
:1008F800031D652C2A08A8002908A7000800F6008F
:10090800F5013A30760203188F2C30307602031C3A
:100918008F2CF501F50A750C0800F50083160313F2
:10092800981C922C75088312031399000800640020
:0E0938008001840A04060319003404069C2C76
:100A0000FF1B0A2D83137F1883170008840A03191C
:100A1000FF0A08007F087F398A000408840A031946
:100A2000FF0A8200013400340A3400346434003494
:100A3000E834033410342734443469346734693477
:100A400074346134723465342034713475346134F3
:100A50006E3474346534203476346F346C347434CA
:100A60006534203472346934703472346F346434D1
:100A7000753472347234653420346C34613420340B
:100A8000733465347134753465346E347A3461345A
:100A90003A34203400345234653467346934733462
:100AA00074347234613472346534283465342934D2
:100AB0002C34203472346934703472346F346434BA
:100AC00075347234723465342834693429342034EE
:100AD0006F3420347434653473347434283474348B
:100AE00029343A34203400344534523452344F34AB
:100AF000523445343A3420346434693467346934C8
:100B000074346134723465342034273465342734C6
:100B10002C34203427346934273420346F34203483
:100B20002734743427342E340A340D3400345334CB
:100B300065346C3465347A3469346F3461347234BA
:100B40006534203469346C34203470346534723444
:100B500069346F3464346F342E340A340D34003405
:100B6000523465347334653474347434613472349B
:100B70006534203470346534723420347534733401
:100B800063346934723465342E340A340D340034DD
:100B900052346934703472346F346434753463346D
:100BA00065346E3464346F342E342E342E340A346B
:100BB0000D3400345234653467346934733474341A
:100BC000723461346E3464346F342E342E342E34E7
:100BD0000A340D3400345B342534323475345D34DA
:100BE00020342534353475342D34253475342C3483
:100BF0000934093400342534353475342D34253422
:100C000075342C340A340D34003449346E3469346C
:100C10007A3469346F343A342034003452344534F1
:100C20005334453454340A340D3400344634693472
:100C30006E3465343A3420340034253463340A3455
:100C40000D34003483120313A200A301A4013C2E2F
:100C500025080A128A1191240A128A110A300A12EE
:100C60008A1191248312031323082207A00020086D
:100C700084008313800108000A128A11F4270A12E3
:100C80008A1183120313A0002008A5000D30250649
:100C90000319282E7F3025060319522E0830250609
:100CA000031D7B2E2408803AFF0080307F02031D45
:100CB0005B2E01302302031C3C2E831203132508F4
:100CC0000A128A1191240A128A1120300A128A11FA
:100CD00091240A128A118312031325080A128A1119
:100CE00091240A128A11FF3083120313A3070318F9
:100CF000A40AFF30A42E20302502031C3C2E240819
:100D0000803AA0007708803A2002031D892E7608D9
:100D1000230203183C2E8312031325080A128A119A
:100D200091240A128A11831203132508A0002308B4
:100D30002207A100210884002008831380000130CD
:100D4000A3070318A40A0030A4073C2E65305106FF
:100D5000031DE72E5008F0007007903E84000E0837
:100D600083178000840A0F0880008E018F010130F4
:100D7000F0007008D007303050020318CB2E500816
:100D8000A03E84000310061E031400300318013037
:100D900083138000CD2E10108B110310061E031438
:100DA000031CD62E831203138514D92E831203132A
:100DB00085100310061E0314031CE22E8312031376
:100DC0000515E52E8312031305110B10162F4C0881
:100DD0004F020318152F5008F0007007903E840052
:100DE000831700088E00840A00088F005008A03E78
:100DF00084008313000C031C85100318851450080D
:100E0000A03E8400000C031C0511031805150130D9
:100E1000F0007008D0074D085002031C162F013057
:100E2000F0007008CF07D001162F10100C107408B6
:100E3000FF0073088A0072088400710E8300FE0EA2
:100E40007E0E090083120313AB002B0884002030B0
:100E500083130006031D312F0130A6002608AB07BF
:100E6000252F2B0884000930000603192C2FA90117
:100E7000AA01A8012B0884002D300006031D452F70
:100E80000130A6002608A8074B2F2B0884002B3022
:100E90000006031D4F2F0130A6002608AB072B08C4
:100EA000840000080A128A1183240A128A11031C82
:100EB0007D2F831203132A08A1002908A0000A30FD
:100EC000A2000030A3000A128A11D1270A128A1147
:100ED000831203132B088400831300082007A60045
:100EE00021080318210AA7002608D03EA9002708D8
:100EF0000318013EFF3EAA004B2F8312031328085C
:100F000003198E2F2909A6002A09A700A60A03198A
:100F1000A70A2608A4002708A50008002A08A5009B
:100F20002908A400080083120313A501A6012008C4
:100F300021040319CC2FA401A40AA11BAB2F01305B
:100F40000310A00DA10DFF3E031DA02F0130F500E1
:100F50007508A4079D2F01300310A50DA60DFF3EB7
:100F6000031DAC2F21082302031DB82F20082202E5
:100F7000031CC12F2008A2022108031CA303A30203
:100F8000251401300310A10CA00CFF3E031DC22F3D
:100F90000130A402031DAB2F2608A1002508A000E4
:100FA0000800F501F60183120313201CDD2F22082F
:100FB000F5070318F60A2308F60701300310A20DFF
:100FC000A30DFF3E031DDE2F01300310A10CA00C6A
:100FD000FF3E031DE52F20082104031DD32F7608B3
:100FE000A1007508A0000800831203138C1AFE2FBD
:100FF000981CF42F981018121816F42F1A080800CD
:02400E0032FF7F
:00000001FF
